{
  "transactions": [
    {
      "hash": "0x9e29763d1273e13d0f934643ad75d67592e18769002b6180e05fb1e4320a58d5",
      "transactionType": "CREATE",
      "contractName": "MockERC20",
      "contractAddress": "0xb532baa9582a59920026d39d06bbf82fa291cf78",
      "function": null,
      "arguments": [
        "Mock USDC",
        "mUSDC",
        "1000000"
      ],
      "transaction": {
        "from": "0x23686f799e7c1e8158208882bad2bd90a5c59256",
        "gas": "0xbbc30",
        "value": "0x0",
        "input": "0x608060405234801561000f575f5ffd5b50604051610d17380380610d1783398101604081905261002e91610285565b8282600361003c8382610376565b5060046100498282610376565b5050506100783361005e61008060201b60201c565b61006990600a610529565b610073908461053e565b610085565b505050610568565b601290565b6001600160a01b0382166100b35760405163ec442f0560e01b81525f60048201526024015b60405180910390fd5b6100be5f83836100c2565b5050565b6001600160a01b0383166100ec578060025f8282546100e19190610555565b9091555061015c9050565b6001600160a01b0383165f908152602081905260409020548181101561013e5760405163391434e360e21b81526001600160a01b038516600482015260248101829052604481018390526064016100aa565b6001600160a01b0384165f9081526020819052604090209082900390555b6001600160a01b03821661017857600280548290039055610196565b6001600160a01b0382165f9081526020819052604090208054820190555b816001600160a01b0316836001600160a01b03167fddf252ad1be2c89b69c2b068fc378daa952ba7f163c4a11628f55a4df523b3ef836040516101db91815260200190565b60405180910390a3505050565b634e487b7160e01b5f52604160045260245ffd5b5f82601f83011261020b575f5ffd5b81516001600160401b03811115610224576102246101e8565b604051601f8201601f19908116603f011681016001600160401b0381118282101715610252576102526101e8565b604052818152838201602001851015610269575f5ffd5b8160208501602083015e5f918101602001919091529392505050565b5f5f5f60608486031215610297575f5ffd5b83516001600160401b038111156102ac575f5ffd5b6102b8868287016101fc565b602086015190945090506001600160401b038111156102d5575f5ffd5b6102e1868287016101fc565b925050604084015190509250925092565b600181811c9082168061030657607f821691505b60208210810361032457634e487b7160e01b5f52602260045260245ffd5b50919050565b601f82111561037157805f5260205f20601f840160051c8101602085101561034f5750805b601f840160051c820191505b8181101561036e575f815560010161035b565b50505b505050565b81516001600160401b0381111561038f5761038f6101e8565b6103a38161039d84546102f2565b8461032a565b6020601f8211600181146103d5575f83156103be5750848201515b5f19600385901b1c1916600184901b17845561036e565b5f84815260208120601f198516915b8281101561040457878501518255602094850194600190920191016103e4565b508482101561042157868401515f19600387901b60f8161c191681555b50505050600190811b01905550565b634e487b7160e01b5f52601160045260245ffd5b6001815b600184111561047f5780850481111561046357610463610430565b600184161561047157908102905b60019390931c928002610448565b935093915050565b5f8261049557506001610523565b816104a157505f610523565b81600181146104b757600281146104c1576104dd565b6001915050610523565b60ff8411156104d2576104d2610430565b50506001821b610523565b5060208310610133831016604e8410600b8410161715610500575081810a610523565b61050c5f198484610444565b805f190482111561051f5761051f610430565b0290505b92915050565b5f61053760ff841683610487565b9392505050565b808202811582820484141761052357610523610430565b8082018082111561052357610523610430565b6107a2806105755f395ff3fe608060405234801561000f575f5ffd5b50600436106100a6575f3560e01c806340c10f191161006e57806340c10f191461011f57806370a082311461013457806395d89b411461015c5780639dc29fac14610164578063a9059cbb14610177578063dd62ed3e1461018a575f5ffd5b806306fdde03146100aa578063095ea7b3146100c857806318160ddd146100eb57806323b872dd146100fd578063313ce56714610110575b5f5ffd5b6100b26101c2565b6040516100bf9190610612565b60405180910390f35b6100db6100d6366004610662565b610252565b60405190151581526020016100bf565b6002545b6040519081526020016100bf565b6100db61010b36600461068a565b61026b565b604051601281526020016100bf565b61013261012d366004610662565b61028e565b005b6100ef6101423660046106c4565b6001600160a01b03165f9081526020819052604090205490565b6100b261029c565b610132610172366004610662565b6102ab565b6100db610185366004610662565b6102b5565b6100ef6101983660046106e4565b6001600160a01b039182165f90815260016020908152604080832093909416825291909152205490565b6060600380546101d190610715565b80601f01602080910402602001604051908101604052809291908181526020018280546101fd90610715565b80156102485780601f1061021f57610100808354040283529160200191610248565b820191905f5260205f20905b81548152906001019060200180831161022b57829003601f168201915b5050505050905090565b5f3361025f8185856102c2565b60019150505b92915050565b5f336102788582856102d4565b610283858585610355565b506001949350505050565b61029882826103b2565b5050565b6060600480546101d190610715565b61029882826103e6565b5f3361025f818585610355565b6102cf838383600161041a565b505050565b6001600160a01b038381165f908152600160209081526040808320938616835292905220545f1981101561034f578181101561034157604051637dc7a0d960e11b81526001600160a01b038416600482015260248101829052604481018390526064015b60405180910390fd5b61034f84848484035f61041a565b50505050565b6001600160a01b03831661037e57604051634b637e8f60e11b81525f6004820152602401610338565b6001600160a01b0382166103a75760405163ec442f0560e01b81525f6004820152602401610338565b6102cf8383836104ec565b6001600160a01b0382166103db5760405163ec442f0560e01b81525f6004820152602401610338565b6102985f83836104ec565b6001600160a01b03821661040f57604051634b637e8f60e11b81525f6004820152602401610338565b610298825f836104ec565b6001600160a01b0384166104435760405163e602df0560e01b81525f6004820152602401610338565b6001600160a01b03831661046c57604051634a1406b160e11b81525f6004820152602401610338565b6001600160a01b038085165f908152600160209081526040808320938716835292905220829055801561034f57826001600160a01b0316846001600160a01b03167f8c5be1e5ebec7d5bd14f71427d1e84f3dd0314c0f7b2291e5b200ac8c7c3b925846040516104de91815260200190565b60405180910390a350505050565b6001600160a01b038316610516578060025f82825461050b919061074d565b909155506105869050565b6001600160a01b0383165f90815260208190526040902054818110156105685760405163391434e360e21b81526001600160a01b03851660048201526024810182905260448101839052606401610338565b6001600160a01b0384165f9081526020819052604090209082900390555b6001600160a01b0382166105a2576002805482900390556105c0565b6001600160a01b0382165f9081526020819052604090208054820190555b816001600160a01b0316836001600160a01b03167fddf252ad1be2c89b69c2b068fc378daa952ba7f163c4a11628f55a4df523b3ef8360405161060591815260200190565b60405180910390a3505050565b602081525f82518060208401528060208501604085015e5f604082850101526040601f19601f83011684010191505092915050565b80356001600160a01b038116811461065d575f5ffd5b919050565b5f5f60408385031215610673575f5ffd5b61067c83610647565b946020939093013593505050565b5f5f5f6060848603121561069c575f5ffd5b6106a584610647565b92506106b360208501610647565b929592945050506040919091013590565b5f602082840312156106d4575f5ffd5b6106dd82610647565b9392505050565b5f5f604083850312156106f5575f5ffd5b6106fe83610647565b915061070c60208401610647565b90509250929050565b600181811c9082168061072957607f821691505b60208210810361074757634e487b7160e01b5f52602260045260245ffd5b50919050565b8082018082111561026557634e487b7160e01b5f52601160045260245ffdfea2646970667358221220708be0556e4c07c1d78e266a7f678b7a407f4f7c510a5a6ae6ff6a521a775f3164736f6c634300081c0033000000000000000000000000000000000000000000000000000000000000006000000000000000000000000000000000000000000000000000000000000000a000000000000000000000000000000000000000000000000000000000000f424000000000000000000000000000000000000000000000000000000000000000094d6f636b2055534443000000000000000000000000000000000000000000000000000000000000000000000000000000000000000000000000000000000000056d55534443000000000000000000000000000000000000000000000000000000",
        "nonce": "0x1af",
        "chainId": "0xaa36a7"
      },
      "additionalContracts": [],
      "isFixedGasLimit": false
    },
    {
      "hash": "0x752cb0bd78a0df7505d67bbade80ec2d8e0cc8eee7565390d8e92e493c5dd9b5",
      "transactionType": "CREATE",
      "contractName": "TuitionEscrow",
      "contractAddress": "0xea158c90cd570cd123be71604cf794ead6c2f233",
      "function": null,
      "arguments": [
        "0xb532baA9582a59920026d39d06BBf82fa291cF78",
        "0x23686f799e7C1E8158208882bAD2BD90A5C59256"
      ],
      "transaction": {
        "from": "0x23686f799e7c1e8158208882bad2bd90a5c59256",
        "gas": "0x19a5b6",
        "value": "0x0",
        "input": "0x60a060405234801561000f575f5ffd5b5060405161173238038061173283398101604081905261002e9161014f565b806001600160a01b03811661005d57604051631e4fbdf760e01b81525f60048201526024015b60405180910390fd5b610066816100e5565b50600180556001600160a01b0382166100d35760405162461bcd60e51b815260206004820152602960248201527f54756974696f6e457363726f773a20496e76616c6964205553444320746f6b656044820152686e206164647265737360b81b6064820152608401610054565b506001600160a01b0316608052610180565b5f80546001600160a01b038381166001600160a01b0319831681178455604051919092169283917f8be0079c531659141344cd1fd0a4f28419497f9722a3daafe3b4186f6b6457e09190a35050565b80516001600160a01b038116811461014a575f5ffd5b919050565b5f5f60408385031215610160575f5ffd5b61016983610134565b915061017760208401610134565b90509250929050565b6080516115776101bb5f395f8181610156015281816105c601528181610918015281816109b801528181610a980152610d7f01526115775ff3fe60806040526004361061009d575f3560e01c80638da5cb5b116100625780638da5cb5b146101f1578063958fe2d71461020d578063a89427fd1461023a578063c2af09671461024f578063de8f8b3f1461026e578063f2fde38b1461028d575f5ffd5b80630716326d1461010b57806311eac855146101455780635fd1399614610190578063715018a6146101bc5780637aa1ed58146101d2575f5ffd5b366101075760405162461bcd60e51b815260206004820152602f60248201527f54756974696f6e457363726f773a2044697265637420455448207061796d656e60448201526e1d1cc81b9bdd081858d8d95c1d1959608a1b60648201526084015b60405180910390fd5b5f5ffd5b348015610116575f5ffd5b5061012a610125366004610fc0565b6102ac565b60405161013c96959493929190611039565b60405180910390f35b348015610150575f5ffd5b506101787f000000000000000000000000000000000000000000000000000000000000000081565b6040516001600160a01b03909116815260200161013c565b34801561019b575f5ffd5b506101af6101aa366004610fc0565b610379565b60405161013c919061108b565b3480156101c7575f5ffd5b506101d06104f5565b005b3480156101dd575f5ffd5b506101d06101ec366004610fc0565b610508565b3480156101fc575f5ffd5b505f546001600160a01b0316610178565b348015610218575f5ffd5b5061022c6102273660046111b7565b6106e1565b60405190815260200161013c565b348015610245575f5ffd5b5061022c60035481565b34801561025a575f5ffd5b5061022c610269366004611219565b610719565b348015610279575f5ffd5b506101d0610288366004610fc0565b610cbe565b348015610298575f5ffd5b506101d06102a736600461126c565b610e81565b600260208190525f918252604090912080546001820154928201546003830180546001600160a01b03938416959093169391926102e890611285565b80601f016020809104026020016040519081016040528092919081815260200182805461031490611285565b801561035f5780601f106103365761010080835404028352916020019161035f565b820191905f5260205f20905b81548152906001019060200180831161034257829003601f168201915b505050506004830154600590930154919260ff1691905086565b6040805160c0810182525f808252602082018190529181018290526060808201526080810182905260a08101919091525f828152600260205260409020546001600160a01b03166103dc5760405162461bcd60e51b81526004016100fe906112bd565b5f82815260026020818152604092839020835160c08101855281546001600160a01b03908116825260018301541692810192909252918201549281019290925260038101805460608401919061043190611285565b80601f016020809104026020016040519081016040528092919081815260200182805461045d90611285565b80156104a85780601f1061047f576101008083540402835291602001916104a8565b820191905f5260205f20905b81548152906001019060200180831161048b57829003601f168201915b5050509183525050600482015460209091019060ff1660028111156104cf576104cf611005565b60028111156104e0576104e0611005565b81526020016005820154815250509050919050565b6104fd610ee1565b6105065f610f0d565b565b610510610ee1565b610518610f5c565b5f81815260026020526040902080546001600160a01b031661054c5760405162461bcd60e51b81526004016100fe906112bd565b5f600482015460ff16600281111561056657610566611005565b146105835760405162461bcd60e51b81526004016100fe90611302565b6004818101805460ff19166001908117909155820154600283015460405163a9059cbb60e01b81526001600160a01b039283169381019390935260248301525f917f00000000000000000000000000000000000000000000000000000000000000009091169063a9059cbb906044016020604051808303815f875af115801561060e573d5f5f3e3d5ffd5b505050506040513d601f19601f820116820180604052508101906106329190611344565b90508061069b5760405162461bcd60e51b815260206004820152603160248201527f54756974696f6e457363726f773a2055534443207472616e7366657220746f206044820152701d5b9a5d995c9cda5d1e4819985a5b1959607a1b60648201526084016100fe565b604051428152339084907f1e170c3b430cc6fdcdaa453c42619ac587e13793aa81a489fab9ebd7019c2efb906020015b60405180910390a350506106de60018055565b50565b5f848484846040516020016106f99493929190611363565b604051602081830303815290604052805190602001209050949350505050565b5f610722610f5c565b6001600160a01b03841661078a5760405162461bcd60e51b815260206004820152602960248201527f54756974696f6e457363726f773a20496e76616c696420756e6976657273697460448201526879206164647265737360b81b60648201526084016100fe565b5f83116107f15760405162461bcd60e51b815260206004820152602f60248201527f54756974696f6e457363726f773a20416d6f756e74206d75737420626520677260448201526e6561746572207468616e207a65726f60881b60648201526084016100fe565b5f82511161085a5760405162461bcd60e51b815260206004820152603060248201527f54756974696f6e457363726f773a20496e766f696365207265666572656e636560448201526f2063616e6e6f7420626520656d70747960801b60648201526084016100fe565b6003545f61086a338786856106e1565b5f818152600260205260409020549091506001600160a01b0316156109015760405162461bcd60e51b815260206004820152604160248201527f54756974696f6e457363726f773a205061796d656e7420494420636f6e666c6960448201527f6374202873686f756c64206e6f742068617070656e2077697468206e6f6e63656064820152602960f81b608482015260a4016100fe565b6040516370a0823160e01b81523060048201525f907f00000000000000000000000000000000000000000000000000000000000000006001600160a01b0316906370a0823190602401602060405180830381865afa158015610965573d5f5f3e3d5ffd5b505050506040513d601f19601f8201168201806040525081019061098991906113b3565b6040516323b872dd60e01b8152336004820152306024820152604481018890529091505f906001600160a01b037f000000000000000000000000000000000000000000000000000000000000000016906323b872dd906064016020604051808303815f875af11580156109fe573d5f5f3e3d5ffd5b505050506040513d601f19601f82011682018060405250810190610a229190611344565b905080610a815760405162461bcd60e51b815260206004820152602760248201527f54756974696f6e457363726f773a2055534443207472616e7366657246726f6d6044820152660819985a5b195960ca1b60648201526084016100fe565b6040516370a0823160e01b81523060048201525f907f00000000000000000000000000000000000000000000000000000000000000006001600160a01b0316906370a0823190602401602060405180830381865afa158015610ae5573d5f5f3e3d5ffd5b505050506040513d601f19601f82011682018060405250810190610b0991906113b3565b9050610b1588846113de565b8114610b785760405162461bcd60e51b815260206004820152602c60248201527f54756974696f6e457363726f773a2055534443207472616e7366657220616d6f60448201526b0eadce840dad2e6dac2e8c6d60a31b60648201526084016100fe565b6040805160c0810182523381526001600160a01b038b16602082015290810189905260608101889052608081015f8152426020918201525f8681526002808352604091829020845181546001600160a01b03199081166001600160a01b0392831617835594860151600183018054909616911617909355908301519082015560608201516003820190610c0b9082611443565b50608082015160048201805460ff19166001836002811115610c2f57610c2f611005565b021790555060a0919091015160059091015560038054905f610c50836114fe565b9190505550886001600160a01b0316336001600160a01b0316857fa0f5e536a7b58dfcff893c7122c23a433285e1e7f9996213774fde1a28838d408b8b8a42604051610c9f9493929190611516565b60405180910390a450919350505050610cb760018055565b9392505050565b610cc6610ee1565b610cce610f5c565b5f81815260026020526040902080546001600160a01b0316610d025760405162461bcd60e51b81526004016100fe906112bd565b5f600482015460ff166002811115610d1c57610d1c611005565b14610d395760405162461bcd60e51b81526004016100fe90611302565b6004810180546002919060ff191660018302179055508054600282015460405163a9059cbb60e01b81526001600160a01b03928316600482015260248101919091525f917f0000000000000000000000000000000000000000000000000000000000000000169063a9059cbb906044016020604051808303815f875af1158015610dc5573d5f5f3e3d5ffd5b505050506040513d601f19601f82011682018060405250810190610de99190611344565b905080610e4d5760405162461bcd60e51b815260206004820152602c60248201527f54756974696f6e457363726f773a2055534443207472616e7366657220746f2060448201526b1c185e595c8819985a5b195960a21b60648201526084016100fe565b604051428152339084907f3b28817a65441bed1ac3a5496c6b71346aa302e80c7418c12e1c49eaa1721176906020016106cb565b610e89610ee1565b5f546001600160a01b0316610e9d82610f86565b816001600160a01b0316816001600160a01b03167f101b8081ff3b56bbf45deb824d86a3b0fd38b7e3dd42421105cf8abe9106db0b60405160405180910390a35050565b5f546001600160a01b031633146105065760405163118cdaa760e01b81523360048201526024016100fe565b5f80546001600160a01b038381166001600160a01b0319831681178455604051919092169283917f8be0079c531659141344cd1fd0a4f28419497f9722a3daafe3b4186f6b6457e09190a35050565b600260015403610f7f57604051633ee5aeb560e01b815260040160405180910390fd5b6002600155565b610f8e610ee1565b6001600160a01b038116610fb757604051631e4fbdf760e01b81525f60048201526024016100fe565b6106de81610f0d565b5f60208284031215610fd0575f5ffd5b5035919050565b5f81518084528060208401602086015e5f602082860101526020601f19601f83011685010191505092915050565b634e487b7160e01b5f52602160045260245ffd5b6003811061103557634e487b7160e01b5f52602160045260245ffd5b9052565b6001600160a01b038781168252861660208201526040810185905260c0606082018190525f9061106b90830186610fd7565b905061107a6080830185611019565b8260a0830152979650505050505050565b6020815260018060a01b03825116602082015260018060a01b036020830151166040820152604082015160608201525f606083015160c060808401526110d460e0840182610fd7565b905060808401516110e860a0850182611019565b5060a084015160c08401528091505092915050565b80356001600160a01b0381168114611113575f5ffd5b919050565b634e487b7160e01b5f52604160045260245ffd5b5f82601f83011261113b575f5ffd5b813567ffffffffffffffff81111561115557611155611118565b604051601f8201601f19908116603f0116810167ffffffffffffffff8111828210171561118457611184611118565b60405281815283820160200185101561119b575f5ffd5b816020850160208301375f918101602001919091529392505050565b5f5f5f5f608085870312156111ca575f5ffd5b6111d3856110fd565b93506111e1602086016110fd565b9250604085013567ffffffffffffffff8111156111fc575f5ffd5b6112088782880161112c565b949793965093946060013593505050565b5f5f5f6060848603121561122b575f5ffd5b611234846110fd565b925060208401359150604084013567ffffffffffffffff811115611256575f5ffd5b6112628682870161112c565b9150509250925092565b5f6020828403121561127c575f5ffd5b610cb7826110fd565b600181811c9082168061129957607f821691505b6020821081036112b757634e487b7160e01b5f52602260045260245ffd5b50919050565b60208082526025908201527f54756974696f6e457363726f773a205061796d656e7420646f6573206e6f7420604082015264195e1a5cdd60da1b606082015260800190565b60208082526022908201527f54756974696f6e457363726f773a205061796d656e74206e6f742070656e64696040820152616e6760f01b606082015260800190565b5f60208284031215611354575f5ffd5b81518015158114610cb7575f5ffd5b6bffffffffffffffffffffffff198560601b1681526bffffffffffffffffffffffff198460601b1660148201525f83518060208601602885015e6028920191820192909252604801949350505050565b5f602082840312156113c3575f5ffd5b5051919050565b634e487b7160e01b5f52601160045260245ffd5b808201808211156113f1576113f16113ca565b92915050565b601f82111561143e57805f5260205f20601f840160051c8101602085101561141c5750805b601f840160051c820191505b8181101561143b575f8155600101611428565b50505b505050565b815167ffffffffffffffff81111561145d5761145d611118565b6114718161146b8454611285565b846113f7565b6020601f8211600181146114a3575f831561148c5750848201515b5f19600385901b1c1916600184901b17845561143b565b5f84815260208120601f198516915b828110156114d257878501518255602094850194600190920191016114b2565b50848210156114ef57868401515f19600387901b60f8161c191681555b50505050600190811b01905550565b5f6001820161150f5761150f6113ca565b5060010190565b848152608060208201525f61152e6080830186610fd7565b604083019490945250606001529291505056fea26469706673582212201c980f2c9744a4cf61a174aa101c492c16310e15e4ac7f94e869a113392988bd64736f6c634300081c0033000000000000000000000000b532baa9582a59920026d39d06bbf82fa291cf7800000000000000000000000023686f799e7c1e8158208882bad2bd90a5c59256",
        "nonce": "0x1b0",
        "chainId": "0xaa36a7"
      },
      "additionalContracts": [],
      "isFixedGasLimit": false
    },
    {
      "hash": "0xa0b7d717c12f0d51dcf30d102a2eea0e07067697a355b9cc61c6d2e6a1e116a4",
      "transactionType": "CALL",
      "contractName": "MockERC20",
      "contractAddress": "0xb532baa9582a59920026d39d06bbf82fa291cf78",
      "function": "transfer(address,uint256)",
      "arguments": [
        "0x960EDa0D16f4D70df60629117ad6e5F1E13B8F44",
        "10000000000"
      ],
      "transaction": {
        "from": "0x23686f799e7c1e8158208882bad2bd90a5c59256",
        "to": "0xb532baa9582a59920026d39d06bbf82fa291cf78",
        "gas": "0x126d8",
        "value": "0x0",
        "input": "0xa9059cbb000000000000000000000000960eda0d16f4d70df60629117ad6e5f1e13b8f4400000000000000000000000000000000000000000000000000000002540be400",
        "nonce": "0x1b1",
        "chainId": "0xaa36a7"
      },
      "additionalContracts": [],
      "isFixedGasLimit": false
    },
    {
      "hash": "0xe74569f1fb37658c85ebb0a9d0317fe4ac3fab90abdbe7d65cbd1209497d4747",
      "transactionType": "CALL",
      "contractName": "MockERC20",
      "contractAddress": "0xb532baa9582a59920026d39d06bbf82fa291cf78",
      "function": "approve(address,uint256)",
      "arguments": [
        "0xea158C90CD570Cd123be71604CF794EAD6c2F233",
        "1000000000"
      ],
      "transaction": {
        "from": "0x960eda0d16f4d70df60629117ad6e5f1e13b8f44",
        "to": "0xb532baa9582a59920026d39d06bbf82fa291cf78",
        "gas": "0x108ad",
        "value": "0x0",
        "input": "0x095ea7b3000000000000000000000000ea158c90cd570cd123be71604cf794ead6c2f233000000000000000000000000000000000000000000000000000000003b9aca00",
        "nonce": "0x360",
        "chainId": "0xaa36a7"
      },
      "additionalContracts": [],
      "isFixedGasLimit": false
    },
    {
      "hash": "0x2eb98715cb24347cdacc1f31cd9eb66b0606f0b018d67b3bcec626d2f7ee1151",
      "transactionType": "CALL",
      "contractName": "TuitionEscrow",
      "contractAddress": "0xea158c90cd570cd123be71604cf794ead6c2f233",
      "function": "depositTuition(address,uint256,string)",
      "arguments": [
        "0x6813Eb9362372EEF6200f3b1dbC3f819671cBA69",
        "1000000000",
        "INV-001"
      ],
      "transaction": {
        "from": "0x960eda0d16f4d70df60629117ad6e5f1e13b8f44",
        "to": "0xea158c90cd570cd123be71604cf794ead6c2f233",
        "gas": "0x43e55",
        "value": "0x0",
        "input": "0xc2af09670000000000000000000000006813eb9362372eef6200f3b1dbc3f819671cba69000000000000000000000000000000000000000000000000000000003b9aca0000000000000000000000000000000000000000000000000000000000000000600000000000000000000000000000000000000000000000000000000000000007494e562d30303100000000000000000000000000000000000000000000000000",
        "nonce": "0x361",
        "chainId": "0xaa36a7"
      },
      "additionalContracts": [],
      "isFixedGasLimit": false
    },
    {
      "hash": "0x1f6767e340f6b19c6d306b17779e82b3746563c1afb5b439ade6ba9fd3638893",
      "transactionType": "CALL",
      "contractName": "TuitionEscrow",
      "contractAddress": "0xea158c90cd570cd123be71604cf794ead6c2f233",
      "function": "releasePayment(bytes32)",
      "arguments": [
        "0xb2d6054d482b4ee122de51792a95a5e7e39a007c08c7a6111efac0fc1c8f9444"
      ],
      "transaction": {
        "from": "0x23686f799e7c1e8158208882bad2bd90a5c59256",
        "to": "0xea158c90cd570cd123be71604cf794ead6c2f233",
        "gas": "0x1e63d",
        "value": "0x0",
        "input": "0x7aa1ed58b2d6054d482b4ee122de51792a95a5e7e39a007c08c7a6111efac0fc1c8f9444",
        "nonce": "0x1b2",
        "chainId": "0xaa36a7"
      },
      "additionalContracts": [],
      "isFixedGasLimit": false
    }
  ],
  "receipts": [
    {
      "status": "0x1",
      "cumulativeGasUsed": "0xec2b33",
      "logs": [
        {
          "address": "0xb532baa9582a59920026d39d06bbf82fa291cf78",
          "topics": [
            "0xddf252ad1be2c89b69c2b068fc378daa952ba7f163c4a11628f55a4df523b3ef",
            "0x0000000000000000000000000000000000000000000000000000000000000000",
            "0x00000000000000000000000023686f799e7c1e8158208882bad2bd90a5c59256"
          ],
          "data": "0x00000000000000000000000000000000000000000000d3c21bcecceda1000000",
          "blockHash": "0xdc273757311b2a87b811b4fb2fd1768a04d12bf938d6fce9f363da5782acaf5e",
          "blockNumber": "0x81159e",
          "transactionHash": "0x9e29763d1273e13d0f934643ad75d67592e18769002b6180e05fb1e4320a58d5",
          "transactionIndex": "0x74",
          "logIndex": "0x11c",
          "removed": false
        }
      ],
      "logsBloom": "0x00000000000000000040000000000000000000000000000200000000000000000000000000000000000000000000000000000000000000000000000004000000000000000000000000000008000000010000000000000000000000000000000000000000020000000000000000000800000000000000000000000010000000000000000000000000000000000000000000000000000000000000000000000000000000000000000000000000000000000000000000000000000000000200000000000002800000000000000000000000000000000000000000000000000020000000000000000000000000000000000000000000000000000000000000000000",
      "type": "0x2",
      "transactionHash": "0x9e29763d1273e13d0f934643ad75d67592e18769002b6180e05fb1e4320a58d5",
      "transactionIndex": "0x74",
      "blockHash": "0xdc273757311b2a87b811b4fb2fd1768a04d12bf938d6fce9f363da5782acaf5e",
      "blockNumber": "0x81159e",
      "gasUsed": "0x906ea",
      "effectiveGasPrice": "0x124fa2",
      "from": "0x23686f799e7c1e8158208882bad2bd90a5c59256",
      "to": null,
      "contractAddress": "0xb532baa9582a59920026d39d06bbf82fa291cf78"
    },
    {
      "status": "0x1",
      "cumulativeGasUsed": "0x1818c5d",
      "logs": [
        {
          "address": "0xea158c90cd570cd123be71604cf794ead6c2f233",
          "topics": [
            "0x8be0079c531659141344cd1fd0a4f28419497f9722a3daafe3b4186f6b6457e0",
            "0x0000000000000000000000000000000000000000000000000000000000000000",
            "0x00000000000000000000000023686f799e7c1e8158208882bad2bd90a5c59256"
          ],
          "data": "0x",
          "blockHash": "0xff673cc2e6b869e19b7dcf325f7d94cddee56a11ce5e72e473f4ffe27217e68e",
          "blockNumber": "0x81159f",
          "transactionHash": "0x752cb0bd78a0df7505d67bbade80ec2d8e0cc8eee7565390d8e92e493c5dd9b5",
          "transactionIndex": "0x70",
          "logIndex": "0x12e",
          "removed": false
        }
      ],
      "logsBloom": "0x00000000000000000040000000000000000000000000000000800000000000000000000000000000000000000000000000000000000000000010000004000000000000000000000000000000000000000001000000000000000000000000000000000000020000000000000000000800000000000000000000000000000000400000000000000000000000000000000000000000000000000000000000000000000000000000000000000000000000000000000000000000000000000200000000000001000000000000000000000000000000000000002000000000000020000000000000000000000000000000000000000000000000000000000000000000",
      "type": "0x2",
      "transactionHash": "0x752cb0bd78a0df7505d67bbade80ec2d8e0cc8eee7565390d8e92e493c5dd9b5",
      "transactionIndex": "0x70",
      "blockHash": "0xff673cc2e6b869e19b7dcf325f7d94cddee56a11ce5e72e473f4ffe27217e68e",
      "blockNumber": "0x81159f",
      "gasUsed": "0x13ba8c",
      "effectiveGasPrice": "0x124fa3",
      "from": "0x23686f799e7c1e8158208882bad2bd90a5c59256",
      "to": null,
      "contractAddress": "0xea158c90cd570cd123be71604cf794ead6c2f233"
    },
    {
      "status": "0x1",
      "cumulativeGasUsed": "0x1995c0e",
      "logs": [
        {
          "address": "0xb532baa9582a59920026d39d06bbf82fa291cf78",
          "topics": [
            "0xddf252ad1be2c89b69c2b068fc378daa952ba7f163c4a11628f55a4df523b3ef",
            "0x00000000000000000000000023686f799e7c1e8158208882bad2bd90a5c59256",
            "0x000000000000000000000000960eda0d16f4d70df60629117ad6e5f1e13b8f44"
          ],
          "data": "0x00000000000000000000000000000000000000000000000000000002540be400",
          "blockHash": "0x53d646404e1c34428a5d90e8d07d3dc9795b34c634ec343eed467d7fc4910b26",
          "blockNumber": "0x8115a0",
          "transactionHash": "0xa0b7d717c12f0d51dcf30d102a2eea0e07067697a355b9cc61c6d2e6a1e116a4",
          "transactionIndex": "0x70",
          "logIndex": "0x124",
          "removed": false
        }
      ],
      "logsBloom": "0x00000000000000000040000000000000000000000000000200000000000000000000000000000000000000000000000000000000000000000000000004000000000000000000000000000008000000010000000000000000000000000000000000000000000000000000000000000000800000000000000000000010000000000000000000000000000000000800000000000000000000000000000000000000000000000000000000000000000000000000000000000000000000000200000000000002800000000002000000000000000000000000000000000000000000000000000000000000000000000000000000000000000000000000000000000000",
      "type": "0x2",
      "transactionHash": "0xa0b7d717c12f0d51dcf30d102a2eea0e07067697a355b9cc61c6d2e6a1e116a4",
      "transactionIndex": "0x70",
      "blockHash": "0x53d646404e1c34428a5d90e8d07d3dc9795b34c634ec343eed467d7fc4910b26",
      "blockNumber": "0x8115a0",
      "gasUsed": "0xc99b",
      "effectiveGasPrice": "0x124fa4",
      "from": "0x23686f799e7c1e8158208882bad2bd90a5c59256",
      "to": "0xb532baa9582a59920026d39d06bbf82fa291cf78",
      "contractAddress": null
    },
    {
      "status": "0x1",
      "cumulativeGasUsed": "0x11140ac",
      "logs": [
        {
          "address": "0xb532baa9582a59920026d39d06bbf82fa291cf78",
          "topics": [
            "0x8c5be1e5ebec7d5bd14f71427d1e84f3dd0314c0f7b2291e5b200ac8c7c3b925",
            "0x000000000000000000000000960eda0d16f4d70df60629117ad6e5f1e13b8f44",
            "0x000000000000000000000000ea158c90cd570cd123be71604cf794ead6c2f233"
          ],
          "data": "0x000000000000000000000000000000000000000000000000000000003b9aca00",
          "blockHash": "0xf6da2ef5d83d85bafdd7c0cb9cf1bf9cd04887012e280e2c76d7e1fa52e59a82",
          "blockNumber": "0x8115a1",
          "transactionHash": "0xe74569f1fb37658c85ebb0a9d0317fe4ac3fab90abdbe7d65cbd1209497d4747",
          "transactionIndex": "0x75",
          "logIndex": "0x13d",
          "removed": false
        }
      ],
      "logsBloom": "0x00000000000000000000000000000000000000000000000200000000000000000000000000000000000000000000000000000000000000000000000000200000000000000000000000000000000000010000000000000000000000000000000000000000000000000000000000000000800000000000000000000000000000000000000000000000000000000800000000000000000000000000000000000000020000000100000000000100000000000000000000000000000000000000000000000000800000000002000000000000000000000000000000000000080000000010000000000000000000000000000000000000000000000000000000000000",
      "type": "0x2",
      "transactionHash": "0xe74569f1fb37658c85ebb0a9d0317fe4ac3fab90abdbe7d65cbd1209497d4747",
      "transactionIndex": "0x75",
      "blockHash": "0xf6da2ef5d83d85bafdd7c0cb9cf1bf9cd04887012e280e2c76d7e1fa52e59a82",
      "blockNumber": "0x8115a1",
      "gasUsed": "0xb4fa",
      "effectiveGasPrice": "0x124fa5",
      "from": "0x960eda0d16f4d70df60629117ad6e5f1e13b8f44",
      "to": "0xb532baa9582a59920026d39d06bbf82fa291cf78",
      "contractAddress": null
    },
    {
      "status": "0x1",
      "cumulativeGasUsed": "0x10eb927",
      "logs": [
        {
          "address": "0xb532baa9582a59920026d39d06bbf82fa291cf78",
          "topics": [
            "0xddf252ad1be2c89b69c2b068fc378daa952ba7f163c4a11628f55a4df523b3ef",
            "0x000000000000000000000000960eda0d16f4d70df60629117ad6e5f1e13b8f44",
            "0x000000000000000000000000ea158c90cd570cd123be71604cf794ead6c2f233"
          ],
          "data": "0x000000000000000000000000000000000000000000000000000000003b9aca00",
          "blockHash": "0x0826c7fda3b7b4170ef114fe358955a8d0e28da920ac51285351f5c6e546e5bc",
          "blockNumber": "0x8115a2",
          "transactionHash": "0x2eb98715cb24347cdacc1f31cd9eb66b0606f0b018d67b3bcec626d2f7ee1151",
          "transactionIndex": "0x71",
          "logIndex": "0x122",
          "removed": false
        },
        {
          "address": "0xea158c90cd570cd123be71604cf794ead6c2f233",
          "topics": [
            "0xa0f5e536a7b58dfcff893c7122c23a433285e1e7f9996213774fde1a28838d40",
            "0xb2d6054d482b4ee122de51792a95a5e7e39a007c08c7a6111efac0fc1c8f9444",
            "0x000000000000000000000000960eda0d16f4d70df60629117ad6e5f1e13b8f44",
            "0x0000000000000000000000006813eb9362372eef6200f3b1dbc3f819671cba69"
          ],
          "data": "0x000000000000000000000000000000000000000000000000000000003b9aca000000000000000000000000000000000000000000000000000000000000000080000000000000000000000000000000000000000000000000000000000000000000000000000000000000000000000000000000000000000000000000683d693c0000000000000000000000000000000000000000000000000000000000000007494e562d30303100000000000000000000000000000000000000000000000000",
          "blockHash": "0x0826c7fda3b7b4170ef114fe358955a8d0e28da920ac51285351f5c6e546e5bc",
          "blockNumber": "0x8115a2",
          "transactionHash": "0x2eb98715cb24347cdacc1f31cd9eb66b0606f0b018d67b3bcec626d2f7ee1151",
          "transactionIndex": "0x71",
          "logIndex": "0x123",
          "removed": false
        }
      ],
      "logsBloom": "0x00000000000000100000000000000000400000000000000200000100000000000000000000000000000000000000000000000000000000000010000000000000000000000000000000000008000000010000000004000000000000000000000000000000000000000000000000000000800000000000000000000010000000000000000000000000000000000800800000000000000000002000021000000000000000000100000000000100000000000000000000000000000000000000000000000003800000000002000000000000000000000000002000000000080000000000000000000000000000000000800000000000000000000000000000000000",
      "type": "0x2",
      "transactionHash": "0x2eb98715cb24347cdacc1f31cd9eb66b0606f0b018d67b3bcec626d2f7ee1151",
      "transactionIndex": "0x71",
      "blockHash": "0x0826c7fda3b7b4170ef114fe358955a8d0e28da920ac51285351f5c6e546e5bc",
      "blockNumber": "0x8115a2",
      "gasUsed": "0x3127d",
      "effectiveGasPrice": "0x124fa5",
      "from": "0x960eda0d16f4d70df60629117ad6e5f1e13b8f44",
      "to": "0xea158c90cd570cd123be71604cf794ead6c2f233",
      "contractAddress": null
    },
    {
      "status": "0x1",
      "cumulativeGasUsed": "0xe72596",
      "logs": [
        {
          "address": "0xb532baa9582a59920026d39d06bbf82fa291cf78",
          "topics": [
            "0xddf252ad1be2c89b69c2b068fc378daa952ba7f163c4a11628f55a4df523b3ef",
            "0x000000000000000000000000ea158c90cd570cd123be71604cf794ead6c2f233",
            "0x0000000000000000000000006813eb9362372eef6200f3b1dbc3f819671cba69"
          ],
          "data": "0x000000000000000000000000000000000000000000000000000000003b9aca00",
          "blockHash": "0x718fd0653fed303b3d2ef474a94975cb2ba572f2c737a8b4a6ef7b02946c67e5",
          "blockNumber": "0x8115a3",
          "transactionHash": "0x1f6767e340f6b19c6d306b17779e82b3746563c1afb5b439ade6ba9fd3638893",
          "transactionIndex": "0x6a",
          "logIndex": "0x13d",
          "removed": false
        },
        {
          "address": "0xea158c90cd570cd123be71604cf794ead6c2f233",
          "topics": [
            "0x1e170c3b430cc6fdcdaa453c42619ac587e13793aa81a489fab9ebd7019c2efb",
            "0xb2d6054d482b4ee122de51792a95a5e7e39a007c08c7a6111efac0fc1c8f9444",
            "0x00000000000000000000000023686f799e7c1e8158208882bad2bd90a5c59256"
          ],
          "data": "0x00000000000000000000000000000000000000000000000000000000683d6948",
          "blockHash": "0x718fd0653fed303b3d2ef474a94975cb2ba572f2c737a8b4a6ef7b02946c67e5",
          "blockNumber": "0x8115a3",
          "transactionHash": "0x1f6767e340f6b19c6d306b17779e82b3746563c1afb5b439ade6ba9fd3638893",
          "transactionIndex": "0x6a",
          "logIndex": "0x13e",
          "removed": false
        }
      ],
      "logsBloom": "0x00000000000000100040000000000000400000000000000200000180000000000000000000000000000000000000000000000000000000000010000004000000000000000000000000000008000000010000000000000000000000000000000000000000000000000000000000000000000000000000000000000010000000000004200000000000000000000000800000000000000000000000001000000000000000000100000000000100000000000000000000000000000000000200000000000003800000000000000000000000000000000000002000000000080000000000000000000000000000000000800000000000000000000000000000000000",
      "type": "0x2",
      "transactionHash": "0x1f6767e340f6b19c6d306b17779e82b3746563c1afb5b439ade6ba9fd3638893",
      "transactionIndex": "0x6a",
      "blockHash": "0x718fd0653fed303b3d2ef474a94975cb2ba572f2c737a8b4a6ef7b02946c67e5",
      "blockNumber": "0x8115a3",
      "gasUsed": "0x14c79",
      "effectiveGasPrice": "0x124fa5",
      "from": "0x23686f799e7c1e8158208882bad2bd90a5c59256",
      "to": "0xea158c90cd570cd123be71604cf794ead6c2f233",
      "contractAddress": null
    }
  ],
  "libraries": [],
  "pending": [],
  "returns": {},
  "timestamp": 1748855147,
  "chain": 11155111,
  "commit": "3617587"
}